:100000000C94BF000C94DC000C94DC000C94DC001D
:100010000C94DC000C94DC000C94DC000C94DC00F0
:100020000C94DC000C94DC000C9477030C94AF036C
:100030000C94DC000C94DC000C94DC000C94DC00D0
:100040000C94DC000C94DC000C94DC000C94DC00C0
:100050000C94DC000C94DC000C94DC000C94DC00B0
:100060000C94DC000C94DC000C94DC000C94DC00A0
:100070000C94DC000C94DC000C94DC000C94DC0090
:100080000C94DC000C94DC000C94DC000C94DC0080
:100090000C94DC000C94DC000C94DC000C94DC0070
:1000A0000C94DC000C94DC000C94DC0000010000DB
:1000B0004301120002000000014300030000FC00A5
:1000C0000401030904E8001202030904E000060326
:1000D000030904D600080803340031003000000092
:1000E00006034D003200000012034A002E002000DB
:1000F0004600690065006E00650000000403090405
:1001000009024300020100C032090400000102029A
:100110000100052400100105240101010424020648
:1001200005240600010705820310004009040100B0
:10013000020A0000000705030240000007058402D0
:100140004000001201000202000010C0167A0400F4
:1001500001010203010001C1120180360181360D47
:100160000A002C2041444320333A20002C204144F3
:100170004320323A200041444320313A20001124E8
:100180001FBECFEFDAE0DEBFCDBF11E0A0E0B1E0EF
:10019000E2EDFFE002C005900D92A830B107D9F75B
:1001A00021E0A8E0B1E001C01D92AC30B207E1F758
:1001B0000E94CC060C94A6070C9400008091E800E5
:1001C00080FFFCCF089581E08093D70080EA809380
:1001D000D80082E189BD09B400FEFDCF80E980939B
:1001E000D8001092E00010920B01109208018CE0F0
:1001F0008093E2007894089580910B0108959FB751
:10020000F89480910B01811103C09FBF8FEF089577
:1002100083E08093E9008091E80085FFF6CF80912C
:10022000F1002091E80025FD03C02BE62093E800B3
:100230009FBF08959FB7F89480910B01882329F000
:1002400083E08093E9008091F2009FBF0895809140
:100250000B01882359F08FB7F89493E09093E9004D
:100260002BE69091E80095FD02C08FBF0895209382
:10027000E800F7CF90910B01911102C08FEF089524
:100280009FB7F89424E02093E900209109012223EC
:1002900041F02091E80025FD02C09FBFEFCF1092F2
:1002A00009012091E400275E34E04091E80045FD1B
:1002B00012C09FBF9091E400921304C081E080932C
:1002C0000901DCCF90910B019923C1F29FB7F894FB
:1002D0003093E900EACF8093F1008091E80085FD3A
:1002E00003C08AE38093E80085E080930A019FBF02
:1002F00080E0089590910B01992351F09FB7F894F5
:1003000024E02093E9002091E80025FD03C09FBF71
:100310008FEF08958093F1008091E80085FD03C080
:100320008AE38093E80085E080930A019FBF80E024
:10033000089520910B01211102C08FEF08952FB76E
:10034000F89434E03093E90030910901332341F00F
:100350003091E80035FD02C02FBFEFCF10920901A8
:1003600034E040E45AE3A5E06115710519F42FBFAC
:1003700080E00895E091E400E75EF091E800F5FD8B
:1003800012C02FBF2091E4002E1304C081E080939F
:100390000901D3CF20910B01222379F22FB7F894D2
:1003A0003093E900EACFE091F200B42FBE1BB617FC
:1003B000170611F008F0B62FEB2FF0E06E1B7F0B45
:1003C000B13408F03FC1E855F84F0C942607FC0102
:1003D00081918093F100CF01FC0181918093F10024
:1003E000CF01FC0181918093F100CF01FC0181914B
:1003F0008093F100CF01FC0181918093F100CF0146
:10040000FC0181918093F100CF01FC0181918093E7
:10041000F100CF01FC0181918093F100CF01FC013B
:1004200081918093F100CF01FC0181918093F100D3
:10043000CF01FC0181918093F100CF01FC018191FA
:100440008093F100CF01FC0181918093F100CF01F5
:10045000FC0181918093F100CF01FC018191809397
:10046000F100CF01FC0181918093F100CF01FC01EB
:1004700081918093F100CF01FC0181918093F10083
:10048000CF01FC0181918093F100CF01FC018191AA
:100490008093F100CF01FC0181918093F100CF01A5
:1004A000FC0181918093F100CF01FC018191809347
:1004B000F100CF01FC0181918093F100CF01FC019B
:1004C00081918093F100CF01FC0181918093F10033
:1004D000CF01FC0181918093F100CF01FC0181915A
:1004E0008093F100CF01FC0181918093F100CF0155
:1004F000FC0181918093F100CF01FC0181918093F7
:10050000F100CF01FC0181918093F100CF01FC014A
:1005100081918093F100CF01FC0181918093F100E2
:10052000CF01FC0181918093F100CF01FC01819109
:100530008093F100CF01FC0181918093F100CF0104
:10054000FC0181918093F100CF01FC0181918093A6
:10055000F100CF01FC0181918093F100CF01FC01FA
:1005600081918093F100CF01FC0181918093F10092
:10057000CF01FC0181918093F100CF01FC018191B9
:100580008093F100CF01FC0181918093F100CF01B4
:10059000FC0181918093F100CF01FC018191809356
:1005A000F100CF01FC0181918093F100CF01FC01AA
:1005B00081918093F100CF01FC0181918093F10042
:1005C000CF01FC0181918093F100CF01FC01819169
:1005D0008093F100CF01FC0181918093F100CF0164
:1005E000FC0181918093F100CF01FC018191809306
:1005F000F100CF01FC0181918093F100CF01FC015A
:1006000081918093F100CF01FC0181918093F100F1
:10061000CF01FC0181918093F100CF01FC01819118
:100620008093F100CF01FC0181918093F100CF0113
:10063000FC0181918093F100CF01FC0181918093B5
:10064000F100CF01FC0181918093F100CF01E09195
:10065000E800E5FF5093E800A0930A0185CE8FB72C
:10066000F89490910A01992341F094E09093E90065
:100670009AE39093E80010920A018FBF0895809149
:10068000040108958091050108958091060108955F
:100690008091080108959FB7F89420910B012111D2
:1006A00003C09FBF8FEF089522E02093E9003091AF
:1006B000E80035FFF6CF31EA3093F10030E23093B5
:1006C000F1001092F1001092F1001092F1001092DE
:1006D000F1002093F1001092F1008093F10010924C
:1006E000F1008AE38093E8009FBF80E008951F92A5
:1006F0001FB61F9211248F939F938091E100109257
:10070000E10083FF11C01092E90091E09093EB00AB
:100710001092EC0092E19093ED0098E09093F0003D
:1007200010920B011092080182FF13C080910B01FF
:10073000882379F080910A01882359F081508093B1
:100740000A01811106C084E08093E9008AE3809366
:10075000E8009F918F911F901FBE1F9018951F92C8
:100760000F920FB60F921124EF92FF920F931F93E7
:100770002F933F934F935F936F937F938F939F93A9
:10078000AF93BF93CF93DF93EF93FF931092E90062
:100790008091E80083FF72C0D091F100C091F10018
:1007A000E090F1008091F100F82E0091F10080912D
:1007B000F100182F8091F1009091F10022EF209329
:1007C000E800C63009F066C02CEA30E0F901459136
:1007D0005491E416F50609F04AC0F90132964591A4
:1007E00054910417150709F042C0F9013496459158
:1007F0005491F9013696E4918F3F910519F010F06C
:100800008FEF90E0E81708F48E2F3EEF9091E8000C
:10081000292F2570D9F392FD13C0982F813108F04C
:1008200090E1FA01292F21112FC0490F511DE82F06
:10083000E91B9E2F3093E800E11124C0803110F5B0
:10084000FF91EF91DF91CF91BF91AF919F918F91E8
:100850007F916F915F914F913F912F911F910F91D8
:10086000FF90EF900F900FBE0F901F901895295F8B
:100870003F4F40E0263D340709F0A8CF81E2809346
:10088000EB00DECF892FC2CF64916093F10021503D
:100890003196C9CFC53051F48EEF8093E8000E94A5
:1008A000DE008E2D80688093E300CACFC93069F5E1
:1008B000D111E4CFE0920B011092080110920A01CD
:1008C0008EEF8093E80021E085E591E02093E90038
:1008D000AC014F5F5F4FFC0134913093EB00332349
:1008E00091F0FA0144914093EC003196E491039623
:1008F000E093ED002F5F253049F78EE18093EA0009
:100900001092EA009DCFCA01F5CFC83069F4D03803
:1009100009F0B4CF0E94DE0080910B018093F100BA
:100920008EEF8093E8008CCFC13289F4D13A09F080
:10093000A5CF0E94DE0080E091E0FC012191CF0173
:100940002093F100F1E087309F07B9F7E9CFC0327B
:10095000B1F4D13209F092CF8091E80082FFFCCF50
:1009600080E091E02091F100FC012193CF01F1E0C2
:1009700087309F07B9F78BEF8093E800D1CFC23261
:1009800041F4D13209F07ACFE09208010E94DE00F2
:10099000C7CFC11112C00E94DE00D23849F40093C3
:1009A000E900C091EB00C5FBCC27C0F91092E9002B
:1009B000C093F1001092F100B3CF8C2F8D7F813066
:1009C00009F05CCFD23009F059CFEF2809F056CFAB
:1009D0000F778FEF800F843008F050CF8EEF809329
:1009E000E8000093E900C33009F448CF89E180931F
:1009F000EB0081E090E001C0880F0A95EAF77ECF16
:100A00001F93CF93DF93EC01FE011491112351F05A
:100A10001A3019F48DE00E943A01812F0E943A01A8
:100A20002196F2CFDF91CF911F91089597E38A30FD
:100A300008F490E3890F0C943A01CF93C82F829564
:100A40008F700E9416058C2F8F70CF910C94160515
:100A5000CF93C82F892F0E941D058C2FCF910C9406
:100A60001D050C941D05EF92FF920F931F93CF93DA
:100A7000DF9300D000D000D00F92CDB7DEB78E014B
:100A80000F5F1F4F27E0F80111922A95E9F74AE01E
:100A9000B8010E9440077E01F8E0EF0EF11CF8015A
:100AA00081918F0181110E943A010E151F05B9F73E
:100AB00027960FB6F894DEBF0FBECDBFDF91CF9162
:100AC0001F910F91FF90EF900895EF92FF920F9377
:100AD0001F93CF93DF9300D000D000D0CDB7DEB707
:100AE0008E010F5F1F4F26E0F80111922A95E9F75A
:100AF0004AE0B8010E947C077E01F6E0EF0EF11C8F
:100B0000F80181918F0181110E943A010E151F0594
:100B1000B9F726960FB6F894DEBF0FBECDBFDF91B2
:100B2000CF911F910F91FF90EF900895EF92FF9258
:100B30000F931F93CF93DF93CDB7DEB72B970FB6ED
:100B4000F894DEBF0FBECDBF8E010F5F1F4F2BE0AD
:100B5000F80111922A95E9F72AE0A8010E944B07B3
:100B60007E01FCE0EF0EF11CF80181918F018111F3
:100B70000E943A010E151F05B9F72B960FB6F8948F
:100B8000DEBF0FBECDBFDF91CF911F910F91FF90C0
:100B9000EF900895EF92FF920F931F93CF93DF93FF
:100BA000CDB7DEB72B970FB6F894DEBF0FBECDBF23
:100BB0008E010F5F1F4F2BE0F80111922A95E9F784
:100BC0002AE0A8010E945A077E01FBE0EF0EF11C0B
:100BD000F80181918F0181110E943A010E151F05C4
:100BE000B9F72B960FB6F894DEBF0FBECDBFDF91DD
:100BF000CF911F910F91FF90EF900895ACE7B0E077
:100C00009C9190649C93EAE7F0E0908191609083DE
:100C1000908192609083908194609083EEE7F0E001
:100C2000908121E030E0082E01C0220F0A94EAF7FB
:100C3000922B90839C91907F8F70982B9C9308951A
:100C400080917A00806880937A0080917A00806435
:100C500080937A0080917A0084FFFCCF2091780005
:100C60003091790090917A00906190937A00C90157
:100C700008959B0148E3BC01469FC001479F900D2A
:100C8000961B11246FEF73E00E9412076F517F4F84
:100C90002530310591F5809190008160809390001E
:100CA0008091900082608093900080919100886094
:100CB00080939100809191008F7E8093910080912C
:100CC0009100846080939100809191008D7F80934A
:100CD0009100809191008E7F809391007093990094
:100CE000609398008091900080688093900080913C
:100CF00090008F7B8093900008952A30310591F504
:100D0000809180008160809380008091800082606B
:100D10008093800080918100886080938100809121
:100D200081008F7E80938100809181008460809318
:100D30008100809181008D7F80938100809181006E
:100D40008E7F8093810070938B0060938A008091E6
:100D50008000806280938000809180008F7E8093ED
:100D60008000089584B5816084BD84B5826084BDAF
:100D700085B5886085BD85B5846085BD85B58D7F69
:100D800085BD85B58E7F85BD67BD84B5806884BD12
:100D900084B58F7B84BD08950E94E3003E9A269A15
:100DA000279A84E00E94FE0586E791E00E940005F4
:100DB0000E942006EC010E94650565E070E0CE010E
:100DC0000E94390681E00E94FE058CE691E00E94B7
:100DD00000050E942006EC010E9465056AE070E0B3
:100DE000CE010E94390680E00E94FE0582E691E075
:100DF0000E9400050E942006EC010E9465056BE040
:100E000070E0CE010E9439068FE591E00E94000556
:100E10002FEF81EE94E0215080409040E1F700C038
:100E20000000BFCF97FB072E16F4009407D077FD84
:100E300009D00E942C0707FC05D03EF490958195BF
:100E40009F4F0895709561957F4F0895EE0FFF1F96
:100E50000590F491E02D0994AA1BBB1B51E107C03A
:100E6000AA1FBB1FA617B70710F0A61BB70B881F3A
:100E7000991F5A95A9F780959095BC01CD010895C9
:100E8000BB274A3031F4992322F4BDE29095819535
:100E90009F4F0C947D07BB272A3051F4992342F4CD
:100EA000BDE290958095709561957F4F8F4F9F4FD4
:100EB0000C945B07BB27FA01A62F62177105810509
:100EC0009105330B30FB66F0AA27660F771F881F4A
:100ED000991FAA1FA21710F0A21B63953850A9F7FB
:100EE000A05DAA3308F0A95DA19336F7B111B193C3
:100EF0001082CA010C949607BB27FB015527AA272D
:100F0000880F991FAA1FA41710F0A41B8395505196
:100F1000B9F7A05DAA3308F0A95DA193009779F70E
:100F2000B111B1931192CB010C949607DC01FC0135
:100F3000672F71917723E1F7329704C07C916D930D
:100F400070836291AE17BF07C8F30895F894FFCF7E
:100F5000270322031D03180313030E0309030403CD
:100F6000FF02FA02F502F002EB02E602E102DC0205
:100F7000D702D202CD02C802C302BE02B902B40235
:100F8000AF02AA02A502A0029B02960291028C0265
:100F9000870282027D02780273026E026902640295
:100FA0005F025A02550250024B02460241023C02C5
:100FB000370232022D02280223021E0219021402F5
:100FC0000F020A0205020002FB01F601F101EC0129
:020FD000E70137
:080FD20000E10000000008002E
:00000001FF
